:04000000C0EF03F05A
:1000080000C015F0F2A209D03C5206E1020E396E8A
:100018003C0E3A6E000E3B6EF292F0A009D03C52B4
:1000280006E1010E396E0A0E3A6E000E3B6EF09034
:10003800F0A220D0800E000A006E800E3918005CF5
:1000480018E23C5216E1010E3C6E3950010A0AE1F1
:100058000B0ECF6EDC0ECE6E266A276A9E909D80B0
:10006800CD8007D0E10ED76E4C0ED66EF294F28A90
:10007800D58EF092F2A412D0E10ED76E4C0ED66E49
:10008800800E006E800E3B18005C02E13A500008BA
:1000980004E2010E3A5E000E3B5AF2949EA01FD075
:1000A8000B0ECF6EDC0ECE6E264A272A800E27183E
:1000B800006E800E005C02E1040E265C0FE3266AE7
:1000C800276A800E006E800E3B18005C02E13A50F1
:1000D800000804E2010E3A5E000E3B5A9E9015C0DD
:0400E80000F0110013
:0A00EC00210E0D6E0D2EFED712003E
:1000F6000F0E0C6E470E0D6E0D2EFED70C2EFCD776
:06010600000000001200E1
:06010C00000000001200DB
:10011200000195BF02D0839E01D0838E95BD02D08F
:10012200839C01D0838C95BB02D0839A01D0838AB1
:1001320095B902D0839801D0838871B102D08384AB
:1001420001D083948386E1DF839695B702D0839EA4
:1001520001D0838E95B502D0839C01D0838C95B358
:1001620002D0839A01D0838A95B102D0839801D0BC
:10017200838871B102D0838401D083948386C5DFE2
:0E018200839671A102D0B6DF01D0AFDF12006C
:0E0190000001719194C095F0BCDF71811200E6
:10019E000134083609360450085E0550D8A0053CD7
:1001AE00095E003601360F0E0C6E01340836093624
:1001BE00045000A006D0085E0550D8A0053C095E8C
:1001CE0005D008260550D8B0053C09260036013664
:1001DE000C2EEBD700B006D0045008260550D8B030
:0801EE00053C09260000120087
:0C01F6000E0E0D6E0D2EFED70000120044
:100202000450000A08E10550000A05E1FF0E006EE5
:100212007F0E016E57D00D6A096A086A01500010FC
:10022200D8B4000C015005180A6E0ABE0D1E0B6AE6
:1002320005AE05D0041E051E042AD8B4052A01AE57
:1002420005D0001E011E002AD8B4012A0150051053
:100252000A6E0ABE10D0A2DF0BB020D00DAE000C89
:10026200001E011E002AD8B4012A081E091E082AEF
:10027200D8B4092A000C05AE0DD001BE07D001503A
:10028200096E0050086E016A006AE8D7016A006AC6
:10029200002A000C011E001E0B2ADDD7082AD8B442
:1002A200092A0450085CD8A4D9D70550095CD8A4FF
:1002B200D5D7096A086A002AD8B4012A01AECED776
:0602C2000000FF0C120019
:1002C800830EC2168FC000F00036009000360090F2
:1002D8000050C2128CDFC282C2A201D0FDD7C4CFA7
:0E02E80001F0006AC3500012000E0112120055
:1002F600959695949598959A959C959E83968394B4
:10030600839E839C839A8398F3DEF2DEF1DE838AF2
:1003160083888386F8DE8396EBDE8386F4DE839617
:10032600E7DE8386F0DE8396E3DE83988386EBDE64
:100336008396DEDE8386E7DE8396839A838E8386C4
:10034600E2DE8396D5DE839E83888386DCDE839613
:1003560083988386D8DE8396CBDE8386D4DE839627
:1003660083888386D0DE8396C3DE83988386CBDE3E
:100376008396838E838C838A83888386C4DE839662
:08038600B7DE000171811200D5
:10038E000900F5CFE6FF0006FBE10106F9E11200D8
:10039E00C80E0001726F020E736F8F0E746F000E17
:1003AE00756FC26A4E1C006E0050C116070EC01249
:0603BE00C08EC280120097
:1003C40010D0800E00018F6F1AD0C00E8F6F17D01F
:1003D400940E8F6F14D0D40E8F6F11D0800E8F6F48
:1003E4000ED000018F51010AECE08F51020AEDE0BA
:1003F4008F51030AEDE08F51040AEDE0EFD7900529
:10040400006E8F51002600C08FF000C095F07FDE93
:100414007191936B93519125E96E000E9221EA6ECE
:10042400EE520BE093519125E96E000E9221EA6E93
:0E043400EECF94F0ABDE932BEDD7718112006A
:100442000B6A0A6A096A086A0E6A0334083604509B
:10045200085E0550D8A0053C095E0650D8A0063CAF
:100462000A5E0750D8A0073C0B5EE86AD8A0010ECE
:100472000E5E0336070E0C6E0334083609360A3652
:100482000B360E36045003A012D0085E0550D8A0D9
:10049200053C095E0650D8A0063C0A5E0750D8A06B
:1004A200073C0B5EE86AD8A0010E0E5E11D008264A
:1004B2000550D8B0053C09260650D8B0063C0A269D
:1004C2000750D8B0073C0B26E86AD8B0010E0E26BA
:1004D20003360C2ED1D70234083609360A360B36CB
:1004E2000E36045003A012D0085E0550D8A0053C79
:1004F200095E0650D8A0063C0A5E0750D8A0073C09
:100502000B5EE86AD8A0010E0E5E11D008260550D7
:10051200D8B0053C09260650D8B0063C0A2607503A
:10052200D8B0073C0B26E86AD8B0010E0E26023678
:10053200070E0C6E0234083609360A360B360E36B2
:10054200045002A012D0085E0550D8A0053C095EF6
:100552000650D8A0063C0A5E0750D8A0073C0B5EA6
:10056200E86AD8A0010E0E5E11D008260550D8B058
:10057200053C09260650D8B0063C0A260750D8B0DA
:10058200073C0B26E86AD8B0010E0E2602360C2E66
:10059200D1D70134083609360A360B360E360450E6
:1005A20002A012D0085E0550D8A0053C095E065094
:1005B200D8A0063C0A5E0750D8A0073C0B5EE86A4A
:1005C200D8A0010E0E5E11D008260550D8B0053C09
:1005D20009260650D8B0063C0A260750D8B0073C78
:1005E2000B26E86AD8B0010E0E260136070E0C6EF5
:1005F2000134083609360A360B360E36045001A08D
:1006020012D0085E0550D8A0053C095E0650D8A05D
:10061200063C0A5E0750D8A0073C0B5EE86AD8A0E9
:10062200010E0E5E11D008260550D8B0053C0926F1
:100632000650D8B0063C0A260750D8B0073C0B2615
:10064200E86AD8B0010E0E2601360C2ED1D700343E
:10065200083609360A360B360E36045001A012D07F
:10066200085E0550D8A0053C095E0650D8A0063C9D
:100672000A5E0750D8A0073C0B5EE86AD8A0010EBC
:100682000E5E11D008260550D8B0053C092606504A
:10069200D8B0063C0A260750D8B0073C0B26E86AB9
:1006A200D8B0010E0E260036070E0C6E0034083646
:1006B20009360A360B360E36045000A012D0085EF8
:1006C2000550D8A0053C095E0650D8A0063C0A5E3B
:1006D2000750D8A0073C0B5EE86AD8A0010E0E5E58
:1006E20011D008260550D8B0053C09260650D8B0CE
:1006F200063C0A260750D8B0073C0B26E86AD8B059
:10070200010E0E2600360C2ED1D700B00ED00450AA
:1007120008260550D8B0053C09260650D8B0063C3C
:0C0722000A260750D8B0073C0B26120036
:10072E00220E0C6E086A096A0A6A0B6A0C06D8B4A5
:10073E001FD0D8900B320A320932083203320232FD
:10074E0001320032D8A0F2D70C06D8B409D004502A
:10075E0008260550092206500A2207500B22EAD716
:10076E00045008260550092206500A2207500B2273
:02077E00120067
:100780007DEC05F0070EB46EFF0E926EFF0E936EB9
:1007900094908290B0DD010E956FBBDC0C0E956FCE
:1007A000B8DCFDDD3B0EC16E070ED56EB00ECD6E12
:1007B000D09EF28EF28CF18CF288F18AF086F1886C
:1007C000F0883C52D8B431D18F6B7EDD00C08DF003
:1007D00001C08EF08DC076F08EC077F08DC000F035
:1007E0008EC001F0000E026E036EE80E046E030E62
:1007F000056E000E066E000E076E99DFFF0E046E8A
:10080000030E056E000E066E000E076E1ADE00C0A7
:1008100078F001C079F002C07AF003C07BF0020EDC
:1008200000018E5D02E1660E8D5D02E2828007D0DE
:100830007751030802E176513208D8A08290540E15
:100840007C6F650E7D6F6D0E7E6F700E7F6F3A0E42
:10085000806F200E816F640E046E000E056E066EB2
:10086000076E78C000F079C001F07AC002F07BC05A
:1008700003F0E7DD300E0024826F0A0E046E000ED6
:10088000056E066E076E78C000F079C001F07AC080
:1008900002F07BC003F0D5DD0A0E046E000E056E7B
:1008A000066E076ECEDD08C000F009C001F00AC078
:1008B00002F00BC003F0300E0024836F2E0E846F05
:1008C0000A0E046E000E056E066E076E78C000F00C
:1008D00079C001F07AC002F07BC003F0B2DD08C03D
:1008E00000F009C001F00AC002F00BC003F0300EA6
:1008F0000024856F200E866FDF0E876F430E886F92
:10090000200E896F200E8A6F200E8B6F8C6B010E6C
:100910008F6F010E906F7C0E916F000E926F52DD03
:10092000540E7C6F650E7D6F6D0E7E6F700E7F6F47
:100930006F0E806F3A0E816F200E826F0A0E046E6A
:10094000000E056E3AC000F03BC001F05ADC300EDC
:1009500000240001836F0A0E046E000E056E3AC07B
:1009600000F03BC001F04DDC08C000F009C001F010
:10097000300E00240001846F730E856F200E866F89
:10098000200E876F200E886F200E896F200E8A6FD1
:10099000200E8B6F8C6B020E8F6F010E906F7C0E92
:1009A000916F000E926F0EDD800E006E800E3B1870
:1009B000005C02E13A50000837E33C6A396A8290F1
:1009C000D59ECD90F29A9D90010E956F89EC00F026
:1009D0001A0E0C6EF80E0D6E0D2EFED70C2EFCD7D7
:1009E0000000010E8F6F010E906F160E916F000EBA
:1009F000926FE8DC150E0B6E4B0E0C6EBE0E0D6E7C
:100A00000D2EFED70C2EFCD70B2EFAD70000010EB0
:100A1000956F89EC00F01A0E0C6EF80E0D6E0D2E0F
:100A2000FED70C2EFCD700002CD0010E8F6F010ECC
:100A3000906F280E916F000E926FC4DC3950010A3E
:100A40000AE1020E8F6F010E906F3D0E916F000E46
:100A5000926FB8DC16D03950020A0AE1020E8F6F8D
:100A6000010E906F4F0E916F000E926FABDC09D0AC
:100A7000020E8F6F010E906F600E916F000E926FDD
:100A8000A1DC020E0B6E860E0C6E990E0D6E0D2EF5
:0E0A9000FED70C2EFCD70B2EFAD793D6FFD72D
:100AFA0010EE16F05B0E006E010E016E9E0EF66E83
:0E0B0A000A0EF76E000EF86EC7EC01F0120036
:100A9E0046696D206461206D65646963616F210034
:020AAE00000046
:100AB00053656C2E206D6F646F3A2020202020201B
:010AC0000035
:010AC1000034
:020AC200000032
:010AC4000031
:100AC50043757274613A2031307320202020202034
:010AD5000020
:010AD60030EF
:100AD7004C6F6E67613A203630732020202020202B
:010AE700000E
:100AE8002D2D202F202D2D202020202020202020BB
:010AF80000FD
:020000040030CA
:0E000000000C1F1EFF8381FF0FC00FE00F409A
:00000001FF
